:100000000C9434000C9451000C9451000C94510049
:100010000C9451000C9451000C9451000C9451001C
:100020000C9451000C9451000C9451000C9451000C
:100030000C9451000C9451000C9451000C945100FC
:100040000C9451000C9451000C9451000C945100EC
:100050000C9451000C9451000C9451000C945100DC
:100060000C9451000C94510011241FBECFEFD8E026
:10007000DEBFCDBF11E0A0E0B1E0EAEAF6E002C0E9
:1000800005900D92AA30B107D9F721E0AAE0B1E0BE
:1000900001C01D92AD30B207E1F70E9434030C9409
:1000A00053030C94000080E480937C0087E88093E5
:1000B0007A00569A83E884BD82E085BD539A93E224
:1000C0009093B0008093B100089590917C00907F50
:1000D0008770982B90937C0080917A008064809345
:1000E0007A0080917A0086FDFCCF80917800909113
:1000F00079000895863011F467BD0895833011F4B6
:100100006093B4000895019710F051F00895672BA3
:1001100021F05A9A599847BD08955A98599AFBCF99
:10012000672B29F05D9A5C984093B40008955D9820
:100130005C9AFACF48EC61E070E080E090E00E94C9
:10014000830048EC60E070E081E090E00E94830072
:100150008EE080930001089597FF03C091958195EB
:1001600091090895CF93DF9300D000D0CDB7DEB7CB
:1001700089B18038990B919590930B0187FD0AC046
:1001800080910A01811106C080910C0121E0822733
:1001900080930C0190930A010E947002429A81158B
:1001A00029F064E0CE0101960E94770284E68983FB
:1001B0005A9A599888EC87BD0F900F900F900F9026
:1001C000DF91CF9108958EBD0DB407FEFDCF8EB5A2
:1001D0000895883088F421E030E0A90101C0440F7F
:1001E0008A95EAF7842F9BB1611519F0892B8BB999
:1001F000089580958923FBCF8E3070F4885021E0DC
:1002000030E0A90101C0440F8A95EAF7842F95B127
:10021000611519F0892B85B9089580958923FBCF45
:1002200060E0809103010C94E90061E0809102019B
:100230000E94E90085E08A95F1F70000089560E0EA
:10024000809102010E94E90085E08A95F1F70000A3
:1002500008950F931F93CF93DF9300D00F92CDB7E4
:10026000DEB78A836983172F042F0E941F018A81BA
:1002700080620E94E30089818A831B83EA81FB817B
:10028000E00FF11D8F018A819B818017910749F44E
:100290000F900F900F90DF91CF911F910F910C94C1
:1002A0001501EA81FB818191EA83FB830E94E300CF
:1002B000EACFCF93DF930F92CDB7DEB789830E9449
:1002C0001F0189810E94E3008FEF0E94E300898370
:1002D0000E94150189810F90DF91CF910895883098
:1002E00048F49AB121E001C0220F8A95EAF7922BD7
:1002F0009AB908958E3048F494B1885021E001C035
:10030000220F8A95EAF7922B94B9089584B18C62F2
:1003100084B980E58CBD81E08DBD0895CF93DF93D6
:100320000F92CDB7DEB789838E3710F08DE78983C2
:1003300041E0BE016F5F7F4F85E00E9429010F9071
:10034000DF91CF9108951F93CF93DF930F92CDB795
:10035000DEB78132A0F080E280930101898311E150
:1003600041E0BE016F5F7F4F812F0E9429011F5F17
:100370001731B1F70F90DF91CF911F91089581113F
:10038000EBCF81E0E9CF1F93CF93DF9300D00F92A3
:10039000CDB7DEB7162F80930301609302010E9450
:1003A0006F01812F0E946F010E9410010E941501B0
:1003B00084B18C6284B980E58CBD11E01DBD8FE1F4
:1003C0009EE40197F1F700C000008AE08B8341E0D2
:1003D000BE016D5F7F4F80E00E9429018FE19EE4A6
:1003E0000197F1F700C00000809101010E94A30174
:1003F0001A8341E0BE016E5F7F4F81E00E942901B8
:10040000198341E0BE016F5F7F4F82E00E942901A6
:100410000F900F900F90DF91CF911F910895CF9380
:10042000DF9300D0CDB7DEB789839A8345E0BC0166
:1004300080E10E94290145E069817A818AE00F907C
:100440000F90DF91CF910C942901811104C045E0F8
:100450008AE00C9429019FEF980F953018F441E041
:10046000865FF7CF0895CF93DF930F92CDB7DEB7B6
:1004700080E00E9459018160898341E0BE016F5F85
:100480007F4F80E00E94290161E0809103010E947A
:10049000E90087E092E00197F1F700C000000F90BB
:1004A000DF91CF910895CF93DF930F92CDB7DEB751
:1004B0000E94100180E00E9459018E7F898341E0F3
:1004C000BE016F5F7F4F80E00E94290187E092E0CC
:1004D0000197F1F700C000000F90DF91CF910895D0
:1004E00087E00E94590186FB882780F90895EF92E2
:1004F000FF920F931F93CF93DF930F92CDB7DEB789
:10050000E82E192FF62E0E941F0181E60E94E300BB
:1005100081E2F81610F080E2F82E8E2D912F282F10
:100520002E192F1598F00E94150180E4898341E06F
:10053000BE016F5F7F4F87E00E9429010F90DF911E
:10054000CF911F910F91FF90EF9008958C018FEF45
:100550000E94E300F80181938F018E2FDFCF0E946C
:100560001F0181EE0E94E3000C941501EF92FF92AF
:100570000F931F93CF93DF930F92CDB7DEB7E82E83
:10058000192FF62E0E9453020E941F0180EA0E943A
:10059000E30081E2F81610F080E2F82E8E2D912F04
:1005A000282F2E192F1550F10E94150161E080911E
:1005B00003010E94E900F0E5FA95F1F70E941001AD
:1005C00008E813E187E00E94590185FBFF24F5F854
:1005D00085FF1BC080E2898341E0BE016F5F7F4FD2
:1005E00087E00E942901FF24F3948F2D0F90DF9163
:1005F000CF911F910F91FF90EF900895FC01819191
:100600008F010E94E300802FCACF84FF0CC080E1DD
:10061000898341E0BE016F5F7F4F87E00E9429011F
:100620000E94AF02E2CF85E38A95F1F70000015006
:10063000104041F6DACF0E941F0182EE0E94E300D3
:100640000C941501CF93DF930F92CDB7DEB70E94C4
:100650001F018FEF0E94E30089830E9415018981A9
:100660000F90DF91CF910895209A87B18E6087B95E
:100670008AB18E678AB95F9A0E94530020E836E9F2
:1006800048E950E06AE089E00E94C30164E071E05B
:1006900080E00E9425028CE40E948E010E943302B9
:0A06A0000E94B200FDCFF894FFCFD6
:0A06AA000E200A0830303030310015
:00000001FF
